:020000040800F2
:100000000050002089980008919100089391000801
:100010009591000897910008999100080000000050
:100020000000000000000000000000009B9100089C
:100030009D910008000000009F910008A191000818
:10004000D1980008D1980008D1980008D1980008EC
:10005000D1980008D1980008D1980008D1980008DC
:10006000D1980008D1980008D1980008D1980008CC
:10007000D1980008AD910008D1980008D1980008E7
:10008000D1980008D1980008D1980008D1980008AC
:10009000D1980008D1980008D1980008BD910008B7
:1000A000D1980008D1980008D1980008D19800088C
:1000B000D1980008D1980008C9910008E59100087E
:1000C000F5910008D1980008D1980008D19800084F
:1000D0000592000815920008259200083592000844
:1000E00045920008D1980008D1980008000000004F
:1000F0000000000000000000000000000000000000
:0C01000000000000000000005FF808F1A3
:1001100010B5054C237833B9044B13B10448AFF341
:1001200000800123237010BD400200200000000069
:10013000CCE0000808B5034B1BB103490348AFF3FB
:10014000008008BD0000000044020020CCE0000850
:1001500081F0004102E000BF83F0004330B54FEA78
:1001600041044FEA430594EA050F08BF90EA020FE5
:100170001FBF54EA000C55EA020C7FEA645C7FEA78
:10018000655C00F0E2804FEA5454D4EB5555B8BF9B
:100190006D420CDD2C4480EA020281EA030382EA0C
:1001A000000083EA010180EA020281EA0303362D9E
:1001B00088BF30BD11F0004F4FEA01314FF4801C71
:1001C0004CEA113102D0404261EB410113F0004F83
:1001D0004FEA03334CEA133302D0524263EB43033A
:1001E00094EA050F00F0A780A4F10104D5F1200ED8
:1001F0000DDB02FA0EFC22FA05F2801841F1000133
:1002000003FA0EF2801843FA05F359410EE0A5F106
:1002100020050EF1200E012A03FA0EFC28BF4CF037
:10022000020C43FA05F3C01851EBE37101F00045ED
:1002300007D54FF0000EDCF1000C7EEB00006EEBFA
:100240000101B1F5801F1BD3B1F5001F0CD3490884
:100250005FEA30004FEA3C0C04F101044FEA4452DB
:1002600012F5800F80F09A80BCF1004F08BF5FEA62
:10027000500C50F1000041EB045141EA050130BD42
:100280005FEA4C0C404141EB010111F4801FA4F1E5
:100290000104E9D191F0000F04BF01460020B1FA3A
:1002A00081F308BF2033A3F10B03B3F120020CDA72
:1002B0000C3208DD02F1140CC2F10C0201FA0CF050
:1002C00021FA02F10CE002F11402D8BFC2F1200CB5
:1002D00001FA02F120FA0CFCDCBF41EA0C0190406B
:1002E000E41AA2BF01EB0451294330BD6FEA0404B4
:1002F0001F3C1CDA0C340EDC04F11404C4F120029F
:1003000020FA04F001FA02F340EA030021FA04F3B0
:1003100045EA030130BDC4F10C04C4F1200220FA07
:1003200002F001FA04F340EA0300294630BD21FA45
:1003300004F0294630BD94F0000F83F4801306BF0B
:1003400081F480110134013D4EE77FEA645C18BFFF
:100350007FEA655C29D094EA050F08BF90EA020F96
:1003600005D054EA000C04BF1946104630BD91EA8E
:10037000030F1EBF0021002030BD5FEA545C05D191
:100380004000494128BF41F0004130BD14F58004D0
:100390003CBF01F5801130BD01F0004545F0FE4144
:1003A00041F470014FF0000030BD7FEA645C1ABF79
:1003B000194610467FEA655C1CBF0B46024650EAB0
:1003C000013406BF52EA033591EA030F41F40021DC
:1003D00030BD00BF90F0000F04BF0021704730B562
:1003E0004FF4806404F132044FF000054FF0000137
:1003F00050E700BF90F0000F04BF0021704730B5F8
:100400004FF4806404F1320410F0004548BF4042CC
:100410004FF000013EE700BF42004FEAE2014FEA21
:1004200031014FEA02701FBF12F07F4393F07F4FFC
:1004300081F06051704732F07F4208BF704793F0FF
:100440007F4F04BF41F40021704730B54FF4607412
:1004500001F0004521F000411CE700BF50EA010215
:1004600008BF704730B54FF000050AE050EA0102BE
:1004700008BF704730B511F0004502D5404261EB2E
:1004800041014FF4806404F132045FEA915C3FF46F
:10049000D8AE4FF003025FEADC0C18BF03325FEA0C
:1004A000DC0C18BF033202EBDC02C2F1200300FABD
:1004B00003FC20FA02F001FA03FE40EA0E0021FAE2
:1004C00002F11444BDE600BF70B54FF0FF0C4CF4D0
:1004D000E06C1CEA11541DBF1CEA135594EA0C0F82
:1004E00095EA0C0F00F0DEF82C4481EA030621EABD
:1004F0004C5123EA4C5350EA013518BF52EA0335F8
:1005000041F4801143F4801338D0A0FB02CE4FF0A9
:100510000005E1FB02E506F00042E0FB03E54FF0D9
:100520000006E1FB03569CF0000F18BF4EF0010ED1
:10053000A4F1FF04B6F5007F64F5407404D25FEACD
:100540004E0E6D4146EB060642EAC62141EA555180
:100550004FEAC52040EA5E504FEACE2EB4F1FD0CC2
:1005600088BFBCF5E06F1ED8BEF1004F08BF5FEA40
:10057000500E50F1000041EB045170BD06F00046F2
:1005800046EA010140EA020081EA0301B4EB5C049F
:10059000C2BFD4EB0C0541EA045170BD41F4801197
:1005A0004FF0000E013C00F3AB8014F1360FDEBFBC
:1005B000002001F0004170BDC4F10004203C35DA98
:1005C0000C341BDC04F11404C4F1200500FA05F31B
:1005D00020FA04F001FA05F240EA020001F00042BC
:1005E00021F0004110EBD37021FA04F642EB060132
:1005F0005EEA430E08BF20EAD37070BDC4F10C045C
:10060000C4F1200500FA04F320FA05F001FA04F21F
:1006100040EA020001F0004110EBD37041F100010B
:100620005EEA430E08BF20EAD37070BDC4F1200516
:1006300000FA05F24EEA020E20FA04F301FA05F27E
:1006400043EA020321FA04F001F0004121FA04F226
:1006500020EA020000EBD3705EEA430E08BF20EAF6
:10066000D37070BD94F0000F0FD101F00046400030
:1006700041EB010111F4801F08BF013CF7D041EAB2
:10068000060195F0000F18BF704703F000465200B6
:1006900043EB030313F4801F08BF013DF7D043EA87
:1006A0000603704794EA0C0F0CEA135518BF95EA3D
:1006B0000C0F0CD050EA410618BF52EA4306D1D1C4
:1006C00081EA030101F000414FF0000070BD50EAE3
:1006D000410606BF1046194652EA430619D094EA6D
:1006E0000C0F02D150EA013613D195EA0C0F05D157
:1006F00052EA03361CBF104619460AD181EA0301AB
:1007000001F0004141F0FE4141F470014FF0000062
:1007100070BD41F0FE4141F4780170BD70B54FF0FD
:10072000FF0C4CF4E06C1CEA11541DBF1CEA13557D
:1007300094EA0C0F95EA0C0F00F0A7F8A4EB05045F
:1007400081EA030E52EA03354FEA013100F0888056
:100750004FEA03334FF0805545EA131343EA12631F
:100760004FEA022245EA111545EA10654FEA0026D4
:100770000EF000419D4208BF964244F1FD0404F58D
:10078000407402D25B084FEA3202B61A65EB0305E9
:100790005B084FEA32024FF480104FF4002CB6EBA6
:1007A000020E75EB030E22BFB61A754640EA0C0026
:1007B0005B084FEA3202B6EB020E75EB030E22BF66
:1007C000B61A754640EA5C005B084FEA3202B6EBA7
:1007D000020E75EB030E22BFB61A754640EA9C0066
:1007E0005B084FEA3202B6EB020E75EB030E22BF36
:1007F000B61A754640EADC0055EA060E18D04FEAF4
:10080000051545EA16754FEA06164FEAC30343EA93
:1008100052734FEAC2025FEA1C1CC0D111F4801F60
:100820000BD141EA00014FF000004FF0004CB6E759
:1008300011F4801F04BF01430020B4F1FD0C88BFF8
:10084000BCF5E06F3FF6AFAEB5EB030C04BFB6EB03
:10085000020C5FEA500C50F1000041EB045170BDF6
:100860000EF0004E4EEA113114EB5C04C2BFD4EB23
:100870000C0541EA045170BD41F480114FF0000EA7
:10088000013C90E645EA060E8DE60CEA135594EA23
:100890000C0F08BF95EA0C0F3FF43BAF94EA0C0F26
:1008A0000AD150EA01347FF434AF95EA0C0F7FF49B
:1008B00025AF104619462CE795EA0C0F06D152EAEF
:1008C00003353FF4FDAE1046194622E750EA4106D3
:1008D00018BF52EA43067FF4C5AE50EA41047FF4E4
:1008E0000DAF52EA43057FF4EBAE12E74FF0FF3C49
:1008F00006E000BF4FF0010C02E000BF4FF0010C1A
:100900004DF804CD4FEA410C7FEA6C5C4FEA430C92
:1009100018BF7FEA6C5C1BD001B050EA410C0CBFE1
:1009200052EA430C91EA030F02BF90EA020F002043
:10093000704710F1000F91EA030F58BF994208BFAA
:1009400090422CBFD8176FEAE37040F00100704767
:100950004FEA410C7FEA6C5C02D150EA013C07D1BE
:100960004FEA430C7FEA6C5CD6D152EA033CD3D009
:100970005DF8040B704700BF8446104662468C4603
:100980001946634600E000BF01B5FFF7B7FF002836
:1009900048BF10F1000F01BD4DF808EDFFF7F4FF5F
:1009A0000CBF012000205DF808FB00BF4DF808EDEA
:1009B000FFF7EAFF34BF012000205DF808FB00BF0D
:1009C0004DF808EDFFF7E0FF94BF012000205DF82F
:1009D00008FB00BF4DF808EDFFF7CEFF94BF0120E4
:1009E00000205DF808FB00BF4DF808EDFFF7C4FFDD
:1009F00034BF012000205DF808FB00BF4FEA410230
:100A000012F5001215D211D56FF47873B3EB625260
:100A100012D94FEAC12343F0004343EA505311F087
:100A2000004F23FA02F018BF404270474FF0000019
:100A3000704750EA013005D111F0004008BF6FF057
:100A4000004070474FF00000704700BF4FEA41027E
:100A5000B2F1E04324BFB3F5001CDCF1FE5C0DD91C
:100A600001F0004C4FEAC0024CEA5070B2F1004F66
:100A700040EB830008BF20F00100704711F0804F69
:100A800021D113F13872BCBF01F00040704741F42E
:100A900080114FEA5252C2F11802C2F1200C10FA32
:100AA0000CF320FA02F018BF40F001004FEAC12316
:100AB0004FEAD32303FA0CFC40EA0C0023FA02F3BA
:100AC0004FEA4303CCE77FEA625307D150EA013390
:100AD0001EBF4FF0FE4040F44000704701F0004060
:100AE00040F0FE4040F40000704700BF80F000403E
:100AF00002E000BF81F0004142001FBF5FEA4103F6
:100B000092EA030F7FEA226C7FEA236C6AD04FEAF5
:100B10001262D2EB1363C1BFD2184140484041403A
:100B2000B8BF5B42192B88BF704710F0004F40F4EC
:100B3000000020F07F4018BF404211F0004F41F408
:100B4000000121F07F4118BF494292EA030F3FD0D4
:100B5000A2F1010241FA03FC10EB0C00C3F12003E7
:100B600001FA03F100F0004302D5494260EB400076
:100B7000B0F5000F13D3B0F1807F06D340084FEAE1
:100B8000310102F10102FE2A51D2B1F1004F40EBD6
:100B9000C25008BF20F0010040EA0300704749003E
:100BA00040EB000010F4000FA2F10102EDD1B0FA09
:100BB00080FCACF1080CB2EB0C0200FA0CF0AABFFE
:100BC00000EBC25052421843BCBFD040184370479C
:100BD00092F0000F81F4000106BF80F400000132A2
:100BE000013BB5E74FEA41037FEA226C18BF7FEA79
:100BF000236C21D092EA030F04D092F0000F08BFBB
:100C00000846704790EA010F1CBF0020704712F0A1
:100C10007F4F04D1400028BF40F00040704712F1E0
:100C200000723CBF00F50000704700F0004343F045
:100C3000FE4040F4000070477FEA226216BF08467B
:100C40007FEA23630146420206BF5FEA412390EA3E
:100C5000010F40F4800070474FF0000304E000BF34
:100C600010F0004348BF40425FEA000C08BF7047E5
:100C700043F0964301464FF000001CE050EA0102A9
:100C800008BF70474FF000030AE000BF50EA0102BE
:100C900008BF704711F0004302D5404261EB4101AB
:100CA0005FEA010C02BF84460146002043F0B643D0
:100CB00008BFA3F18053A3F50003BCFA8CF2083AF5
:100CC000A3EBC25310DB01FA02FC634400FA02FCFE
:100CD000C2F12002BCF1004F20FA02F243EB020005
:100CE00008BF20F00100704702F1200201FA02FC67
:100CF000C2F1200250EA4C0021FA02F243EB02005A
:100D000008BF20EADC7070474FF0FF0C1CEAD0529D
:100D10001EBF1CEAD15392EA0C0F93EA0C0F6FD05E
:100D20001A4480EA010C400218BF5FEA41211ED03C
:100D30004FF0006343EA501043EA5111A0FB013128
:100D40000CF00040B1F5000F3EBF490041EAD371FD
:100D50005B0040EA010062F17F02FD2A1DD8B3F179
:100D6000004F40EBC25008BF20F00100704790F0E8
:100D7000000F0CF0004C08BF49024CEA502040EA3A
:100D800051207F3AC2BFD2F1FF0340EAC250704700
:100D900040F400004FF00003013A5DDC12F1190F3E
:100DA000DCBF00F000407047C2F10002410021FAB0
:100DB00002F1C2F1200200FA02FC5FEA310040F1C8
:100DC000000053EA4C0308BF20EADC70704792F041
:100DD000000F00F0004C02BF400010F4000F013A79
:100DE000F9D040EA0C0093F0000F01F0004C02BF74
:100DF000490011F4000F013BF9D041EA0C018FE7E3
:100E00000CEAD15392EA0C0F18BF93EA0C0F0AD0E8
:100E100030F0004C18BF31F0004CD8D180EA01000E
:100E200000F00040704790F0000F17BF90F0004FA7
:100E3000084691F0000F91F0004F14D092EA0C0F89
:100E400001D142020FD193EA0C0F03D14B0218BF1C
:100E5000084608D180EA010000F0004040F0FE4062
:100E600040F40000704740F0FE4040F440007047FE
:100E70004FF0FF0C1CEAD0521EBF1CEAD15392EA7D
:100E80000C0F93EA0C0F69D0A2EB030280EA010C6D
:100E900049024FEA402037D04FF0805343EA111106
:100EA00043EA10130CF000408B4238BF5B0042F164
:100EB0007D024FF4000C8B4224BF5B1A40EA0C0009
:100EC000B3EB510F24BFA3EB510340EA5C00B3EB3B
:100ED000910F24BFA3EB910340EA9C00B3EBD10F29
:100EE00024BFA3EBD10340EADC001B0118BF5FEA7B
:100EF0001C1CE0D1FD2A3FF650AF8B4240EBC250A4
:100F000008BF20F0010070470CF0004C4CEA502064
:100F10007F32C2BFD2F1FF0340EAC250704740F4B3
:100F200000004FF00003013A37E792F0000F00F0A5
:100F3000004C02BF400010F4000F013AF9D040EA23
:100F40000C0093F0000F01F0004C02BF490011F4B7
:100F5000000F013BF9D041EA0C0195E70CEAD153AF
:100F600092EA0C0F08D142027FF47DAF93EA0C0F96
:100F70007FF470AF084676E793EA0C0F04D14B027A
:100F80003FF44CAF08466EE730F0004C18BF31F02C
:100F9000004CCAD130F000427FF45CAF31F0004326
:100FA0007FF43CAF5FE700BF4FF0FF3C06E000BFBF
:100FB0004FF0010C02E000BF4FF0010C4DF804CDE2
:100FC0004FEA40024FEA41037FEA226C18BF7FEAF2
:100FD000236C11D001B052EA530C18BF90EA010FF4
:100FE00058BFB2EB030088BFC81738BF6FEAE17083
:100FF00018BF40F0010070477FEA226C02D15FEA1F
:10100000402C05D17FEA236CE4D15FEA412CE1D08A
:101010005DF8040B704700BF844608466146FFE751
:101020000FB5FFF7C9FF002848BF10F1000F0FBD33
:101030004DF808EDFFF7F4FF0CBF012000205DF82C
:1010400008FB00BF4DF808EDFFF7EAFF34BF0120B1
:1010500000205DF808FB00BF4DF808EDFFF7E0FF4A
:1010600094BF012000205DF808FB00BF4DF808ED9B
:10107000FFF7D2FF94BF012000205DF808FB00BFFE
:101080004DF808EDFFF7C8FF34BF012000205DF8E0
:1010900008FB00BF4FEA40024FEA41037FEA226C9F
:1010A00002D15FEA402C08D17FEA236C02D15FEACB
:1010B000412C02D14FF0000070474FF00100704703
:1010C00042000ED2B2F1FE4F0BD34FF09E03B3EBB2
:1010D000126209D44FEA002343F0004323FA02F0DE
:1010E00070474FF00000704712F1610F01D14202CA
:1010F00002D14FF0FF3070474FF00000704700BF43
:101100007BB972B90029BEBF00204FF0004106E054
:1011100008BF00281CBF6FF000414FF0FF3000F007
:10112000A7B9ADF1080C6DE904CE002909DB002B4D
:101130001ADB00F035F8DDF804E0DDE9022304B045
:101140007047404261EB4101002B1BDB00F028F8A7
:10115000DDF804E0DDE9022304B0404261EB410127
:10116000524263EB43037047524263EB430300F088
:1011700017F8DDF804E0DDE9022304B0404261EB3A
:1011800041017047524263EB430300F009F8DDF878
:1011900004E0DDE9022304B0524263EB43037047ED
:1011A0002DE9F0478C460446089E002B4BD18A421D
:1011B000154667D9B2FA82F24AB1C2F1200701FAA4
:1011C00002F320FA07F7954047EA030C94404FEAF0
:1011D000154EBCFBFEF71FFA85F80EFB17C307FB85
:1011E00008F9210C41EA0343994509D9EB1807F1A5
:1011F000FF3180F01C81994540F21981023F2B4458
:10120000A3EB0903B3FBFEF00EFB103300FB08F168
:10121000A4B244EA0344A14209D92C1900F1FF33D6
:1012200080F00781A14240F2048102382C4440EA58
:1012300007400027641A1EB10023D440C6E90043CA
:101240003946BDE8F0878B4209D9002E00F0EC80CA
:101250000027C6E9000138463946BDE8F087B3FAF1
:1012600083F7002F48D18B4202D3824200F2FB80E9
:10127000841A61EB030301209C46002EE0D0C6E9EE
:10128000004CDDE702B9FFDEB2FA82F2002A40F03C
:101290008F800127491B4FEA15481FFA85F9B1FBDA
:1012A000F8FE08FB1E1109FB0EF04FEA144C4CEA45
:1012B0000143984207D9EB180EF1FF3102D2984250
:1012C00000F2CD808E461B1AB3FBF8F008FB1033FA
:1012D00009FB00F9A4B244EA0344A14507D92C193B
:1012E00000F1FF3302D2A14500F2B6801846A4EB0C
:1012F000090440EA0E409EE7C7F12005BB4022FAF0
:1013000005FC4CEA030C21FA05F44FEA1C4EB4FB31
:10131000FEF91FFA8CF80EFB194420FA05F3B940C8
:1013200009FB08FA19430B0C43EA0444A24502FAEC
:1013300007F200FA07F30BD91CEB040409F1FF30A4
:1013400080F08880A24540F28580A9F102096444BA
:10135000A4EB0A04B4FBFEF00EFB104400FB08FAF9
:1013600089B241EA0444A24508D91CEB040400F107
:10137000FF316BD2A24569D90238644440EA094082
:10138000A0FB0289A4EB0A044C454146CE4654D347
:1013900051D0002E69D05A1A64EB0E0404FA05F5F8
:1013A00022FA07F3FC401D43C6E90054002747E733
:1013B0009540C2F1200321FA03F04FEA1548B0FB33
:1013C000F8F71FFA85F908FB170024FA03F3914098
:1013D00007FB09FC0B43190C41EA00418C4504FA58
:1013E00002F407D9691807F1FF3031D28C452FD9A3
:1013F000023F2944A1EB0C01B1FBF8F008FB101CE3
:1014000000FB09FE99B241EA0C418E4507D96918E3
:1014100000F1FF3318D28E4516D902382944A1EBCA
:101420000E0140EA07473AE73746304608E70F46DD
:10143000E6E61846FBE64345ABD2B8EB020169EBA2
:101440000C0201389646A4E71846E8E7084695E7F7
:101450000746CFE781467BE702382C4447E7AEF1E9
:10146000020E2B442FE7384607E73746E8E600BF71
:10147000704700BF10F8012B11F8013B012A28BF6B
:101480009A42F7D0D01A7047034613F8012B002A6E
:10149000FBD1181A013870474FEA410C7FEA6C5CA7
:1014A00002D150EA013C0AD14FEA430C7FEA6C5C5E
:1014B00002D152EA033C02D14FF0000070474FF0D6
:1014C000010070474A0011D212F5001211D20DD559
:1014D0006FF47873B3EB62520ED44FEAC12343F03A
:1014E000004343EA505323FA02F070474FF00000E4
:1014F000704750EA013002D14FF0FF3070474FF093
:101500000000704710B504460E4B18784FF47A73FC
:10151000B3FBF0F30C4A1068B0FBF3F000F0A2F854
:1015200068B90F2C01D901200AE0002221464FF0B2
:10153000FF3000F057F8054B1C60002000E0012050
:1015400010BD00BF00000020680000200400002043
:1015500008B5074A136843F010031360032000F036
:101560002FF80020FFF7CEFF07F0C2FD002008BDD6
:1015700000200240034A1168034B1B780B441360A0
:10158000704700BFA804002000000020014B18682D
:10159000704700BFA804002038B50446FFF7F6FFE7
:1015A0000546B4F1FF3F02D0044B1B781C44FFF703
:1015B000EDFF401BA042FAD338BD00BF0000002061
:1015C000074AD36823F4E0631B041B0C000200F4F9
:1015D000E060184340F0BF6040F40030D0607047D6
:1015E00000ED00E030B4174BDB68C3F30223C3F116
:1015F0000704042C28BF04241D1D062D18D9033B05
:101600004FF0FF3505FA04F421EA0401994005FA88
:1016100003F322EA0303194300280BDB0901C9B2D3
:1016200000F1604000F5614080F8001330BC704765
:101630000023E5E700F00F000901C9B2024B19547D
:10164000F4E700BF00ED00E014ED00E000F01F0241
:10165000400901239340024A42F82030704700BFFE
:1016600000E100E00138B0F1807F0AD2064B5860FB
:10167000064AF02182F823100020986007221A60A1
:1016800070470120704700BF10E000E000ED00E06F
:10169000042805D0054A136823F00403136070473B
:1016A000024A136843F004031360704710E000E03F
:1016B000704708B5FFF7FCFF08BD58B110B50446E8
:1016C00043791BB101236371002010BD037107F042
:1016D00041F8F7E70120704770B4066CC56B012430
:1016E000B4406C60046863604368102B05D00368E5
:1016F00099600368DA6070BC704703689A60036899
:10170000D960F8E7002830D010B403460168184AC1
:101710000A441848A0FB0202120992001A64164AF1
:10172000DA63022283F82120086820F47F5020F039
:1017300030005A689C682243DC6822431C692243BB
:101740005C6922439C692243DC69224302430A60AC
:1017500000209862D862186358639863012283F866
:10176000212083F8200010BC70470120704700BF83
:10177000F8FFFDBFCDCCCCCC0000024038B590F8CE
:101780002040012C32D0012480F8204090F82140E4
:10179000012C04D0002380F82030022038BD0446FC
:1017A000022084F821000020A0632568286820F02A
:1017B000010028602046FFF78FFFE36A5BB12268D3
:1017C000136843F00E0313602268136843F00103AB
:1017D00013600020E2E72268136823F0040313601B
:1017E0002268136843F00A031360EDE70220D5E78F
:1017F00008B590F82130022B03D004238363012025
:1018000008BD0268136823F00E03136002681368B2
:1018100023F0010313600368194A934214D0143271
:1018200093421FD0143293421ED0143293421ED0E2
:10183000143293421ED01432934202D04FF0807281
:1018400003E04FF4801200E001220E4B5A600123A6
:1018500080F82130002380F82030436B6BB198472B
:101860000020CDE71022F0E74FF48072EDE74FF44F
:101870008052EAE74FF48032E7E70020C0E700BF7C
:10188000080002400000024038B5C36B1A680468C3
:101890002568016C04238B40134235D015F0040FEA
:1018A00032D0236813F0200F03D1236823F0040300
:1018B00023600368434A934214D01432934218D0F1
:1018C0001432934217D01432934217D014329342F9
:1018D00017D01432934202D04FF0806203E04FF4ED
:1018E000800200E00422384B5A60C36A03B1984773
:1018F00038BD4022F7E74FF48062F4E74FF48042AE
:10190000F1E74FF48022EEE702238B4013423CD0F4
:1019100015F0020F39D0236813F0200F06D1236889
:1019200023F00A032360012380F821300368254A4D
:10193000934214D0143293421CD0143293421BD0E1
:10194000143293421BD0143293421BD01432934270
:1019500002D04FF0007203E04FF4001200E00222C8
:10196000194B5A60002380F82030836A002BBFD0C7
:101970009847BDE72022F3E74FF40072F0E74FF4F9
:101980000052EDE74FF40032EAE7082303FA01F1D1
:101990001142ADD015F0080FAAD0236823F00E0332
:1019A0002360026CC16B012303FA02F24A60836375
:1019B00080F82130002380F82030036B002B97D073
:1019C000984795E70800024000000240F0B482B05A
:1019D00000263546A1E0002C59D0012C00D1CE685C
:1019E000FF2B68D88446FF2B68D8AC00DCF80020B9
:1019F0000F27A74022EA070206FA04F42243CCF894
:101A000000204A6812F0805F00F086805E4A946988
:101A100044F001049461926902F001020192019A7A
:101A2000AC08A71C594A52F8272005F00307BF004D
:101A30004FF00F0C0CFA07FC22EA0C0C544A9042AF
:101A400042D002F5806290427FD002F580629042DF
:101A50007DD002F58062904234D0042235E04D4FB3
:101A6000BC4214D00BD94C4FBC4210D007F5803784
:101A7000BC420CD0A7F58017BC42B1D107E0A7F556
:101A80008017BC4203D007F58037BC42A8D18C68D0
:101A90007CB1012C08D042610826A1E7CE68083647
:101AA0009EE7CE680C369BE70261082698E7002681
:101AB00096E7042694E700F1040C94E7A5F10804E6
:101AC000A40093E7032200E00022BA4042EA0C029D
:101AD00002342E4F47F824204A6812F4803F38D051
:101AE0002E4C22681A4322604A6812F4003F36D016
:101AF0002A4C62681A4362604A6812F4801F34D02C
:101B0000264CA2681A43A2604A6812F4001F32D021
:101B1000224CE2681343E36001350F2D31D80122D6
:101B2000AA400B6813409A42F6D14C68122CB8D0E8
:101B300095D8022CB2D07FF64EAF032CB7D0112C23
:101B40007FF44EAFCE6804364AE70122BDE7022299
:101B5000BBE7124C226822EA03022260C4E70F4C62
:101B6000626822EA03026260C6E70C4CA26822EABD
:101B70000302A260C8E7094CE26822EA0303E360BB
:101B8000CAE702B0F0BC70470010024000000140FC
:101B90000008014000002110000031100004014045
:101BA00012B90904016170470161704708B5054B1E
:101BB0005B69034200D108BD024B586106F030FF5B
:101BC000F9E700BF0004014090F83E30DBB2402B43
:101BD00013D00369B3F5804F1ED0036D002B2DD0B9
:101BE000036D012B33D1436CC3F3C813026803F0B8
:101BF000060343F0F103136129E0036D2BB9436C35
:101C0000026803F0FE03136121E0436C026843F0B5
:101C10000103DBB213611AE090F83D30DBB2212BF7
:101C200006D0436C026843F00103DBB213610EE09F
:101C3000436C026803F0FE03136108E0436CC3F3D6
:101C4000C813026803F0060343F0F0031361002099
:101C50007047436C0268DBB213610020704710B418
:101C60008DB090F83E30DAB2C16A046B90F83D3026
:101C7000DBB2222B0BD000230B9303685A690B9223
:101C80009B690B930B9B00200DB010BC7047036D3C
:101C90000BB9402A17D0036D1BB90369B3F5404F48
:101CA00019D0438D9BB2002B25D1039303685A6949
:101CB00003929A690392039A1A6842F400721A60B6
:101CC00000230365DFE7019303685A6901929B696A
:101CD0000193019BD7E70023029303685A6902929C
:101CE0009A690292029A1A6842F480721A60036D2D
:101CF00001330365C7E7438D9BB2012B1AD0438D97
:101D00009BB2022B6BD00268136843F480631360AC
:101D100003685A6812F4006F03D05A6842F4805284
:101D20005A6000230A9303685A690A929B690A93CE
:101D30000A9BC5E711F5803F16D004293DD008293C
:101D40003BD0122C39D0C36A022B30D00268136802
:101D500023F4806313600023069303685A69069294
:101D60009B690693069BABE70268136823F48063C4
:101D7000136003685A6812F4006F0CD01A6822F4DA
:101D800080621A600023049303685A6904929B6975
:101D90000493049B94E7002205925A6905929A697C
:101DA0000592059A1A6842F400721A6088E7026880
:101DB000136843F480631360CDE70268136823F46B
:101DC000806313600023079303685A6907929A6936
:101DD0000792079A1A6842F400721A6070E7C36AA1
:101DE000022B1BD00268136843F4006313600023C6
:101DF000089303685A6908929A690892089A1A68BF
:101E000022F480621A6003685A6812F4006F3FF48B
:101E100057AF5A6842F480525A6051E7026813681B
:101E200043F4806313600023099303685A6909929D
:101E30009B690993099BE6E7438D9BB24BB1436ACB
:101E40005A1C426202681B781361438D013B9BB2AE
:101E5000438500207047438D9BB24BB103681A69DC
:101E6000436A591C41621A70438D013B9BB2438502
:101E70000020704703685A6912F4806F0DD06FF428
:101E800080625A610423036400230363202280F8E4
:101E90003D2080F83C300120704700207047F8B5A5
:101EA00006460C4617461D461EE02DB1FFF76EFB99
:101EB000069BC01AA84217D900233363202286F854
:101EC0003D2086F83E3086F83C3003201AE0336827
:101ED0005B6924EA03039BB2B3FA83F35B099F4275
:101EE0000FD1B5F1FF3FE0D1C4F30743012BEED092
:101EF00033689B6924EA03039BB2B3FA83F35B095B
:101F0000EDE70020F8BDF8B504460D4616461F461D
:101F100032E01A6842F400721A6023686FF480623B
:101F20005A610423236400232363202284F83D2084
:101F300084F83C3001202DE026B1FFF727FBC01BC1
:101F4000B04219D900232363202284F83D2084F86D
:101F50003C3003201EE023685B6925EA03039BB243
:101F6000003318BF0123A3B123685A6912F4806FAC
:101F7000CFD1B6F1FF3FDFD1C5F30743012BEAD044
:101F800023689B6925EA03039BB2003318BF012332
:101F9000E9E70020F8BD70B504460D4616462368F3
:101FA0005B6913F0800F19D12046FFF763FFB8B9C2
:101FB000B5F1FF3FF3D025B1FFF7E8FA801BA84247
:101FC000EDD9236C43F020032364002323632022F4
:101FD00084F83D2084F83C30032000E0002070BDF0
:101FE0000120FCE72DE9F04184B004460E46174677
:101FF00098460B9D0268136843F480731360009544
:102000000A9B00224FF00111FFF749FF002847D13A
:10201000236806F0FE061E612B460A9A26492046D2
:10202000FFF771FF20B1236C042B3ED1012338E070
:102030000023039323685A6903929B690393039BCC
:102040002A460A992046FFF7A6FF034648B1236CAB
:10205000042B2CD12268136843F40073136001230E
:102060001FE0B8F1010F13D023683A0A1A612A461B
:102070000A992046FFF78FFF034668B1236C042BB3
:1020800017D12268136843F400731360012308E03A
:102090002268FFB2176104E02268FFB2176100E016
:1020A0000323184604B0BDE8F0810323F9E70323B6
:1020B000F7E70323F5E700BF020001002DE9F04137
:1020C00084B004460E46174698460B9D0268136876
:1020D00043F4806313600268136843F480731360F1
:1020E00000950A9B00224FF00111FFF7D8FE00284F
:1020F00074D1F6B2236806F0FE021A612B460A9AE2
:102100003F492046FFF7FFFE20B1236C042B6AD124
:10211000012364E00023039323685A6903929B69B7
:102120000393039B2A460A992046FFF734FF48B1E0
:10213000236C042B59D12268136843F40073136095
:1021400001234CE0B8F1010F12D12368FFB21F61E7
:102150002A460A992046FFF71EFF00B3236C042B82
:1021600047D12268136843F400731360012336E0FB
:1021700023683A0A1A612A460A992046FFF70BFF9C
:1021800048B1236C042B32D12268136843F40073E6
:102190001360012323E02368FFB21F61D8E72268A0
:1021A000136843F48073136000950A9B00224FF07C
:1021B00001112046FFF773FEE8B9236846F00106D7
:1021C0001E612B460A9A0E492046FFF79CFE0346E5
:1021D00028B1236C042B10D1012300E003231846FF
:1021E00004B0BDE8F0810323F9E70323F7E70323F5
:1021F000F5E70323F3E70323F1E70323EFE700BF4A
:102200000200010070B504460D46164623685B695E
:1022100013F0040F19D12046FFF72CFEB8B9B5F121
:10222000FF3FF3D025B1FFF7B1F9801BA842EDD9EC
:10223000236C43F02003236400232363202284F8CB
:102240003D2084F83C30032000E0002070BD0120D8
:10225000FCE770B505460C4616462B685A6912F025
:10226000400F22D15A6912F0100F11D124B1FFF79B
:102270008DF9801BA042F0D92B6C43F020032B6416
:10228000202385F83D30002385F83C30032070BDC5
:102290006FF010025A6100232B642B63202285F813
:1022A0003D2085F83C300120F1E70020EFE70000F9
:1022B000002800F0A28038B5044690F83D30002B8D
:1022C0004FD0242384F83D302268136823F00103A3
:1022D000136001F0C9FB62684A4B9A4246D84A4BE8
:1022E00098428CBF00230123002B40F08880474B8D
:1022F000A3FB00239B0C226853606168414A914212
:102300003AD801332268136261683E4B99423DD846
:10231000431E4900B3FBF1F30133C3F30B03042B5A
:1023200038BF04232268D361E369216A22680B4322
:1023300013602369E16822680B4393606369A169B4
:1023400022680B43D3602268136843F001031360D3
:1023500000202064202384F83D30206384F83E0070
:1023600038BD80F83C3006F0CBFAAAE7284B9842FB
:102370008CBF00230123B7E74FF4967202FB03F3EF
:10238000244AA2FB03239B090133BBE7A368BBB923
:10239000421E01EB4105B2FBF5F20132C2F30B0222
:1023A000B2FA82F2520932BBC3B9013801EB4103E0
:1023B000B0FBF3F30133C3F30B0343F40043B1E782
:1023C000421E01EB810505EB8505B2FBF5F20132FA
:1023D000C2F30B02B2FA82F25209E4E7013801EBD0
:1023E000810303EB8303B0FBF3F30133C3F30B036C
:1023F00043F4404396E7012394E70120704701200E
:10240000AEE700BFA08601007F841E0083DE1B4371
:10241000FF083D00D34D62102DE9F04182B0044623
:102420000E4617469846FFF7B1F894F83D30DBB2F8
:10243000202B04D00223184602B0BDE8F0810546E7
:1024400000901923012251492046FFF728FD00285A
:1024500040F0938094F83C30012B00F090800123F1
:1024600084F83C3023681A6812F0010F03D11A680F
:1024700042F001021A602268136823F400631360BB
:10248000212384F83D30402384F83E300023236428
:10249000089B6362BDF8243063853D4BE362638D26
:1024A000238501950A9B009343463A4631462046D0
:1024B000FFF798FDB0B1236C042B04D1002384F8FE
:1024C0003C300123B7E7002384F83C300323B2E714
:1024D000236C042B55D12268136843F400731360F6
:1024E0000123A8E7238D002B28D02A460A992046ED
:1024F000FFF751FD0028EBD1636A5A1C6262226823
:102500001B781361238D013B9BB22385628D013AB9
:1025100092B262852268516911F0040FE2D0002B5B
:10252000E0D0636A591C61621B781361238D013B03
:102530002385638D013B9BB26385D3E72A460A99C5
:102540002046FFF75FFE034648B1236C042B1AD1E7
:102550002268136843F40073136001236BE721685A
:102560000A6842F400720A60202284F83D200022AA
:1025700084F83E2084F83C205DE702235BE70223D9
:1025800059E7032357E7032355E700BF0200100074
:102590000000FFFF2DE9F04186B004460E461746C5
:1025A0009846FEF7F3FF94F83D30DBB2202B04D0C1
:1025B0000226304606B0BDE8F0810546009019239A
:1025C000012291492046FFF76AFC002840F057811C
:1025D00094F83C30012B00F05481012384F83C3006
:1025E00023681A6812F0010F03D11A6842F0010241
:1025F0001A602268136823F400631360222384F8AE
:102600003D30402384F83E30002323640C9B6362FA
:10261000BDF8343063857D4BE362638D238501957E
:102620000E9B009343463A4631462046FFF746FD4F
:10263000064660B1236C042B04D1002384F83C309F
:102640000126B6E7002384F83C300326B1E7238D4A
:102650005BB9029323685A6902929A690292029ABC
:102660001A6842F400721A607FE0012B0FD0022B2F
:1026700021D02268136843F480631360002305931C
:1026800023685A6905929B690593059B6DE0226852
:10269000136823F48063136072B6002303932368E6
:1026A0005A6903929A690392039A1A6842F4007273
:1026B0001A6062B659E02268136843F4006313603D
:1026C00072B60023049323685A6904929A690492AB
:1026D000049A1A6822F480621A6062B645E02A46BB
:1026E0000E992046FFF7B5FD68B923681A69636A39
:1026F000591C61621A70238D013B2385638D013B58
:102700009BB2638531E0236C202B01D0012650E77A
:1027100003264EE700950E9B00223D492046FFF719
:10272000BEFB002840F0AF8072B62268136843F405
:102730000073136023681A69636A591C61621A7016
:10274000238D013B2385638D013B9BB2638562B67C
:1027500023681A69636A591C61621A70238D013BF0
:102760002385638D013B9BB26385238D002B7DD038
:10277000032B4FD8012BB2D0022BCBD000950E9B50
:10278000002223492046FFF78AFB00287DD12268DA
:10279000136823F48063136072B623681A69636A4E
:1027A000591C61621A70238D013B2385638D013BA7
:1027B0009BB2638500950E9B002215492046FFF7CA
:1027C0006EFB002863D12268136843F40073136022
:1027D00023681A69636A591C61621A70238D013B70
:1027E0002385638D013B9BB2638562B623681A69BA
:1027F000636A591C61621A70238D013B2385638DC6
:10280000013B9BB26385B0E7020010000000FFFFB0
:10281000040001002A460E992046FFF71AFDF0B980
:1028200023681A69636A591C61621A70238D013B1F
:102830002385638D013B9BB2638523685A6912F03F
:10284000040F92D01A69636A591C61621A70238D51
:10285000013B2385638D013B9BB2638585E7236C38
:10286000202B01D00126A4E60326A2E6202384F82B
:102870003D30002384F83E3084F83C3099E602264F
:1028800097E6022695E6032693E6032691E60326BD
:102890008FE600BF2DE9F04385B004468846914697
:1028A0001D46FEF773FE94F83D30DBB2202B04D0BA
:1028B0000223184605B0BDE8F083064600901923B0
:1028C000012256492046FFF7EAFA002840F09B8093
:1028D00094F83C30012B00F09880012384F83C30C0
:1028E00023681A6812F0010F03D11A6842F001023E
:1028F0001A602268136823F400631360242384F8A9
:102900003D3000232364A3F58033E362012735E0E3
:10291000A02384F83D3022685369C3F34003526911
:10292000C2F3802294F83D10C9B253B94AB9A02924
:1029300007D0002DECD0FEF729FE801BA842EAD973
:10294000E6E7202384F83D3023685A6912F0020F2D
:1029500035D11A6842F400721A6023686FF48062FD
:102960005A610096192301222C492046FFF797FA55
:10297000002850D17B1C4F453DD21F46226813686A
:1029800043F48073136000962B4600224FF0011130
:102990002046FFF784FA002839D1236808F0FE02A8
:1029A0001A61FEF7F3FD064622685369C3F340033C
:1029B0005269C2F3802294F83D10C9B2B5E71A6893
:1029C00042F400721A600023039323685A69039249
:1029D0009B690393039B0096192301220F4920460C
:1029E000FFF75DFA0346A0B9202284F83D200022BB
:1029F00084F83C205DE7202384F83D30002384F8F0
:102A00003C30012355E7022353E7022351E7032318
:102A10004FE703234DE703234BE700BF02001000FD
:102A200070477047704708B590F83D30DAB2438D73
:102A30009BB273B1436A591C416201681B780B61F8
:102A4000438D013B9BB24385438D9BB20BB9292A31
:102A500001D0002008BD0268536823F480635360EE
:102A600021230363282380F83D30FFF7DBFFF0E7E5
:102A7000704790F83D30DAB2438D9BB2F3B110B598
:102A800003681969436A5C1C44621970438D013BF9
:102A90009BB24385438D9BB20BB92A2A01D00020FB
:102AA00010BD0268536823F48063536022230363DC
:102AB000282380F83D30FFF7DBFFF0E70020704768
:102AC000704708B503689A6912F0040F09D0002115
:102AD0009B6913F0800F06D0028BFFF7F1FF0020F7
:102AE00008BD0121F4E78289F7E7704708B590F83F
:102AF0003D30DBB2C26A042A01D0082A01D1282B5A
:102B000007D0212B1FD003686FF480625A61002028
:102B100008BD1A4BC3620268536823F4E063536034
:102B200003686FF480625A610268136823F480635B
:102B3000136000230363202280F83D2080F83E309C
:102B4000FFF7D3FFE3E70D4BC36221230363202389
:102B500080F83D30002380F83E300268536823F44B
:102B6000E063536003686FF480625A61026813681F
:102B700023F480631360FFF755FFC8E70000FFFFF1
:102B8000704710B590F83D30DBB290F83E20D2B2DD
:102B9000C46A018D09B9212B05D0212B3CD0402AD4
:102BA00038D0002010BD042C04D0082C02D014F51D
:102BB000803F19D10268536823F4E06353600268D0
:102BC000136843F40073136000230363202380F829
:102BD0003D3090F83E30DBB2402B15D0002380F81A
:102BE0003E30FFF71DFFDCE70268536823F4E06323
:102BF000536011230363002380F83E30202380F8C4
:102C00003D30FFF70DFFCCE7002380F83E30FFF7A3
:102C1000B7FFC6E7222BC4D1438D9BB27BB190F89E
:102C20003E30DBB2402B10D0436A5A1C426202682D
:102C30001B781361438D013B9BB24385B1E702686A
:102C4000536823F480635360ABE7036D9BB9C36C97
:102C5000012B08D0836CC3F3072302681361036D53
:102C6000013303659DE7836C0268DBB21361036D7A
:102C70000233036595E7036D012B17D0036D022B1B
:102C80008FD190F83D30DBB2222B17D090F83D3039
:102C9000DBB2212B85D1436A5A1C426202681B7841
:102CA0001361438D013B9BB243857AE7836C0268D5
:102CB000DBB21361036D0133036572E702681368C9
:102CC00043F4807313606CE708B5C26A90F83D3036
:102CD000DBB2212B01D0002008BD438D9BB203BB8A
:102CE000042A04D0082A02D012F5803F24D10268B9
:102CF000536823F4E06353600268136843F400737D
:102D0000136000230363202380F83D3090F83E30A9
:102D1000DBB2402B20D0002380F83E30FFF780FE4E
:102D2000D9E7436A5A1C426202681B781361438DDB
:102D3000013B9BB24385CEE70268536823F4E0630E
:102D4000536011230363002380F83E30202380F872
:102D50003D30FFF765FEBEE7002380F83E30FFF709
:102D60000FFFB8E7704708B590F83D30DBB2222B73
:102D700001D0002008BD438D9BB2032B29D8023B14
:102D8000012B31D9C36A022B47D00268136823F4A0
:102D9000806313600268536823F4E0635360036840
:102DA0001A69436A591C41621A70438D013B9BB2F8
:102DB0004385202380F83D300023036390F83E30A4
:102DC000DBB2402B2FD0002380F83E30FFF729FEE6
:102DD000CFE703681A69436A591C41621A70438D30
:102DE000013B9BB24385C4E7C36A022B0FD0026844
:102DF000136823F4806313600268136843F400636C
:102E000013600268536823F480635360B1E702687B
:102E1000136843F480631360F3E70268136843F4B4
:102E200080631360B6E7002380F83E30FFF79AFF17
:102E30009FE708B5C26A438D9BB2032B0FD0438D29
:102E40009BB2022B22D003681A69436A591C416263
:102E50001A70438D013B9BB24385002008BD042AB4
:102E600004D0082A02D012F5803F04D1026813680A
:102E700023F48063136003681A69436A591C416232
:102E80001A70438D013B9BB24385E6E7042A17D0B5
:102E9000082A15D012F5803F12D0022A0AD0026803
:102EA000136823F4806313600268536823F440734B
:102EB00053600FE00268136843F480631360F3E724
:102EC0000268536823F4407353600268136843F444
:102ED0000073136003681A69436A591C41621A70CF
:102EE000438D013B9BB2438503681A69436A591CB1
:102EF00041621A70438D013B9BB24385202380F8C9
:102F00003D300023036390F83E30DBB2402B05D008
:102F1000002380F83E30FFF784FD9EE7002380F811
:102F20003E30FFF71FFF98E77047704710B5044623
:102F300090F83D30293B012B36D990F83D30DBB27B
:102F4000602B07D003685B6813F4006F02D1202365
:102F500080F83D300023236384F83E3022681368F4
:102F600023F40063136023685A6812F4006F3ED0A4
:102F70005A6822F400625A60636B93F82120012A98
:102F800018D03A4A5A63606BFEF732FC00283FD0F3
:102F90002268136823F001031360202384F83D3076
:102FA000606B436B984733E000230363282380F86A
:102FB0003D30D3E7A36B2D4A5A63A06BFEF718FC94
:102FC00030B323685A6912F0400F04D01A69636A5B
:102FD000591C61621A702268136823F001031360A0
:102FE000202384F83D30A06B436B984710E094F8A1
:102FF0003D20D2B2602A11D05A6912F0400F04D09D
:103000001A69636A591C61621A702046FFF78CFFC7
:1030100094F83D30DBB2282B17D010BD202284F865
:103020003D20002222645A6912F0400F04D01A6930
:10303000636A591C61621A702268136823F00103E5
:1030400013602046FFF771FFE2E7236C13F0040FD3
:10305000E3D0074BE36200232363202284F83D2062
:1030600084F83E302046FFF740FDD6E7B93300082C
:103070000000FFFF10B582B090F83D30DBB2016870
:103080004A6822F4E0624A600022019202685169B3
:103090000191116841F001011160019A01680A680B
:1030A00022F480620A6001684A6812F4006F14D04A
:1030B00090F83D20D2B2222A0AD090F83D20D2B218
:1030C0002A2A05D0426B1268526892B2428504E007
:1030D000826B1268526892B24285428D92B2F2B10E
:1030E0004A6912F0040F08D00969426A541C44620C
:1030F0001170428D013A92B242850268516911F015
:10310000400F08D01169426A541C44621170428D0C
:10311000013A92B24285026C42F004020264026CEF
:10312000A2B9282B15D02A2B13D0292B11D0026B32
:10313000222A01D0222B17D100230363202280F8FA
:103140003D2080F83E30FFF793FC0DE0FFF7EEFEE8
:103150000AE0074BC36200230363202280F83D206E
:1031600080F83E30FFF7C1FC002002B010BD00BF68
:103170000000FFFFF8B5054603689F695C695E685B
:1031800090F83E30DBB2102B25D0402B23D04C4B97
:10319000234013B116F4007F6ED14A4B234013B184
:1031A00016F4007F6BD1484B3B40002B6FD0474B50
:1031B000234033B116F4806F03D0454B2340002BDE
:1031C00061D0434B234053B316F4007F27D02846E9
:1031D000FEF732FE23E014F0011F02D016F4007F48
:1031E0001ED13C4B234013B116F4007F1CD1344B4D
:1031F000234013B116F4007F1AD1334B3B401BB36D
:10320000324B23402BB116F4806F02D0304B234059
:1032100093B12F4B234013B116F4007F10D1F8BDAA
:103220002846FEF7D1FCE8E72846FEF712FDE4E762
:103230002846FEF714FDE0E72846FFF7A2FCEEE77C
:103240002846FFF741FDEAE7234B23402BB116F454
:10325000806F02D01E4B234053B11D4B2340002BE7
:10326000DDD016F4007FDAD02846FFF7E2FDD6E77E
:103270002846FFF778FDD2E7FFF723FCCFE7284683
:10328000FFF7F8FECBE72846FFF7CDFBC7E7124B69
:1032900023402BB116F4806F02D00D4B234053B165
:1032A0000B4B2340002BBAD016F4007FB7D0284632
:1032B000FEF7D1FDB3E72846FFF7DBFBAFE700BF22
:1032C0000200010010000100040010008000010055
:1032D00004000100080001004000010070B5044630
:1032E00003685D695E68334A15420ED016F4807F2C
:1032F0000BD0026C42F0010202646FF480725A61DA
:103300000268136843F40043136015F4813F0AD048
:1033100016F4807F07D0236C43F0020323642368F4
:103320006FF400725A6115F4823F1AD016F4807F50
:1033300017D094F83E30DBB2628D91B294F83D2004
:10334000D2B2206B202B1DD0236C43F004032364E6
:1033500094F83E30DBB2102B22D023686FF48062E9
:103360005A6115F4843F0AD016F4807F07D0236C8D
:1033700043F00803236423686FF400625A61236CEE
:10338000A3B970BD0029DFD1212A05D0292A03D095
:10339000282AD9D12128D7D12046FFF7A7FBE0E77B
:1033A0002268136843F400731360D6E72046FFF7E2
:1033B000BDFDE6E70001010008B5406A0268136838
:1033C00023F48063136000234385426B5363826B55
:1033D000536390F83D30DBB2602B0DD0202380F892
:1033E0003D30002380F83E300268136823F001036B
:1033F0001360FFF799FD08BD202380F83D300023BE
:1034000080F83E3003640268136823F00103136000
:10341000FFF78BFDEFE708B338B5044603684CF6B9
:10342000CC421A60036845F255521A60036842683C
:103430005A60036882689A60FEF7A8F80546236818
:10344000DA6832B1FEF7A2F8401B3028F7D9032022
:1034500003E04AF6AA221A60002038BD0120704716
:1034600003684AF6AA221A600020704782B0084B0F
:103470001B68084AA2FB03235B0A00FB03F00190D0
:1034800000BF019B5A1E0192002BF9D102B0704778
:1034900068000020D34D621070B582B00446036806
:1034A00013F0010F2CD0AB4B5B6803F00C03042B23
:1034B0001DD0A84B5B6803F00C03082B12D0636887
:1034C000B3F5803F41D0002B55D103F1804303F584
:1034D00004331A6822F480321A601A6822F48022B7
:1034E0001A6037E09B4B5B6813F4803FE7D0994B41
:1034F0001B6813F4003F03D06368002B00F0AE811B
:10350000236813F0020F76D0924B5B6813F00C0F18
:103510005FD0904B5B6803F00C03082B54D02369F9
:10352000002B00F08A808C4B01221A60FEF72EF8E7
:103530000546884B1B6813F0020F75D1FEF726F87D
:10354000401B0228F5D903208BE1824A136843F41B
:1035500080331360636843B3FEF718F805467D4B6C
:103560001B6813F4003FCBD1FEF710F8401B642812
:10357000F5D9032075E1B3F5A02F09D0754B1A6872
:1035800022F480321A601A6822F480221A60E1E77D
:1035900003F18043A3F53C331A6842F480221A6099
:1035A0001A6842F480321A60D4E7FDF7EFFF05464F
:1035B000684B1B6813F4003FA2D0FDF7E7FF401BE8
:1035C0006428F5D903204CE1624B5B6813F4803F1B
:1035D000A5D1604B1B6813F0020F04D02369012BA7
:1035E00001D001203DE15B4A136823F0F8036169D3
:1035F00043EAC1031360236813F0080F32D0A369B4
:10360000002B5BD0554B01221A60FDF7BFFF05462A
:10361000504B5B6A13F0020F21D1FDF7B7FF401B3F
:103620000228F5D903201CE14A4A136823F0F80365
:10363000616943EAC1031360DDE7474B00221A606A
:10364000FDF7A4FF0546434B1B6813F0020FD2D0D1
:10365000FDF79CFF401B0228F5D9032001E1012062
:10366000FFF704FF236813F0040F00F09780394B35
:10367000DB6913F0805F33D1364BDA6942F0805258
:10368000DA61DB6903F080530193019B0125344B20
:103690001B6813F4807F25D0E368012B36D0002B04
:1036A0004CD103F1804303F504331A6A22F001027E
:1036B0001A621A6A22F004021A622CE0274B0022D6
:1036C0001A60FDF763FF0546224B5B6A13F0020F99
:1036D000C8D0FDF75BFF401B0228F5D90320C0E0EE
:1036E0000025D4E71E4A136843F480731360FDF786
:1036F0004DFF06461A4B1B6813F4807FCCD1FDF7B3
:1037000045FF801B6428F5D90320AAE0114A136AFB
:1037100043F001031362E36873B3FDF737FF064616
:103720000C4B1B6A13F0020F37D1FDF72FFF801BE4
:1037300041F288339842F3D9032092E0052B11D04F
:10374000044B1A6A22F001021A621A6A22F0040279
:103750001A62E0E700100240000042428004424248
:1037600000700040414B1A6A42F004021A621A6A61
:1037700042F001021A62CEE7FDF708FF06463B4B16
:103780001B6A13F0020F08D0FDF700FF801B41F207
:1037900088339842F3D9032063E0E5B9E369002B4D
:1037A0005ED0324A526802F00C02082A5BD0022B2B
:1037B00017D02F4B00221A60FDF7E8FE04462B4B72
:1037C0001B6813F0007F47D0FDF7E0FE001B0228C6
:1037D000F5D9032045E0254AD36923F08053D3610E
:1037E000DCE7234B00221A60FDF7D0FE05461F4B95
:1037F0001B6813F0007F06D0FDF7C8FE401B0228AF
:10380000F5D903202DE0236AB3F5803F1AD017497C
:103810004B6823F47413226A606A024313434B60BB
:10382000134B01221A60FDF7B1FE04460F4B1B68D3
:1038300013F0007F0ED1FDF7A9FE001B0228F5D979
:1038400003200EE0094A536823F40033A1680B43B8
:103850005360DCE7002004E0002002E0012000E0EB
:10386000002002B070BD0120FBE700BF0010024045
:103870006000424210B487B0164C94E80F000DF17E
:10388000180C0CE90F00238AADF80430124B5B686A
:1038900003F00C02082A1AD1C3F38342624412F8DF
:1038A000102C13F4803F05D10C4800FB02F007B048
:1038B00010BC7047084B5B68C3F34043634413F884
:1038C000143C074800FB02F0B0FBF3F0EFE70448BC
:1038D000EDE700BFE8E000080010024000093D00ED
:1038E00000127A00594B1B6803F007038B420CD27D
:1038F000564A136823F007030B431360136803F061
:1039000007038B4201D00120704770B5036813F0A4
:10391000020F06D04E4A536823F0F0038468234315
:1039200053600C460546036813F0010F52D04368FC
:10393000012B23D0022B28D0454A126812F0020F27
:1039400000F0828042494A6822F0030213434B6030
:10395000FDF71CFE06466B68012B1DD0022B2AD0FA
:103960003B4B5B6813F00C0F34D0FDF70FFE801B50
:1039700041F288339842F3D9032064E0344A126854
:1039800012F4003FDED101205DE0314A126812F0EE
:10399000007FD7D1012056E02D4B5B6803F00C036C
:1039A000042B17D0FDF7F2FD801B41F288339842BB
:1039B000F2D9032047E0264B5B6803F00C03082B89
:1039C00008D0FDF7E3FD801B41F288339842F2D91D
:1039D000032038E01D4B1B6803F00703A3420CD9FA
:1039E0001A4A136823F0070323431360136803F094
:1039F0000703A34201D0012025E02B6813F0040F38
:103A000006D0134A536823F4E063E9680B4353601C
:103A10002B6813F0080F07D00D4A536823F4605346
:103A2000296943EAC1035360FFF724FF084B5B6831
:103A3000C3F30313074AD35CD840074B1860002038
:103A4000FDF760FD002070BD0120FCE70020024072
:103A500000100240A4F3000868000020014B186821
:103A6000704700BF6800002008B5FFF7F7FF044B60
:103A70005B68C3F30223034AD35CD84008BD00BF90
:103A800000100240B4F3000808B5FFF7E7FF044B4D
:103A90005B68C3F3C223034AD35CD84008BD00BFB0
:103AA00000100240B4F30008F8B505460F4616466C
:103AB0001C463BE02CB1FDF769FD069BC01AA042F5
:103AC00034D32A68536823F0E00353606B68B3F57E
:103AD000827F0BD0AB6AB3F5005F14D0012385F869
:103AE0005130002385F85030032027E0AB68B3F550
:103AF000004F02D0B3F5806FECD12A68136823F031
:103B000040031360E6E72A68136823F400531B049C
:103B10001B0C13602A68136843F400531360DDE73D
:103B20000123B34209D0B4F1FF3FC3D12B689B6896
:103B300037EA0303F4D00023F3E70020F8BD10B503
:103B400082B0044600920B4600228021FFF7ACFFB2
:103B5000034610B9184602B010BD636D43F0200350
:103B600063650323F6E72DE9F04184B01E4690F823
:103B70005030012B00F0C88004460D4690460123CA
:103B800080F85030FDF702FD074694F85130DBB263
:103B9000012B0AD00223012284F85120002284F84C
:103BA0005020184604B0BDE8F081002D00F0A4803C
:103BB000B8F1000F00F0A280032384F851300023F5
:103BC00063652563A4F83480A4F83680A363A387D3
:103BD000E38763642364A368B3F5004F1BD02368B5
:103BE0001A6812F0400F03D11A6842F040021A60BE
:103BF000E368B3F5006F14D063681BB1E38E9BB22A
:103C0000012B3ED1236815F8012B1A73E38E013B7B
:103C10009BB2E38635E02268136843F48043136067
:103C2000DDE763681BB1E38E9BB2012B0DD12368E6
:103C300035F8022BDA60E38E013B9BB2E38604E0A9
:103C4000002E5DD0B6F1FF3F0FD1E38E9BB27BB368
:103C500023689A6812F0020FF2D035F8022BDA606E
:103C6000E38E013B9BB2E386EFE7FDF78FFCC01BC1
:103C7000B042EAD303238EE7002E43D0B6F1FF3FD4
:103C80000FD1E38E9BB29BB123689A6812F0020FAA
:103C9000F2D015F8012B1A73E38E013B9BB2E38639
:103CA000EFE7FDF773FCC01BB042EAD3032372E7D2
:103CB00000973346012202212046FFF7F5FE08B1A6
:103CC000032368E73A4631462046FFF738FF0346AC
:103CD00018B12023636501235DE7A26832B903921E
:103CE0002268D168039192680392039A626D002A58
:103CF0003FF451AF01234EE701234CE701234AE78C
:103D0000032348E7032346E702234AE72DE9F0436C
:103D100085B099460C9D90F85030012B00F0108131
:103D200004460F461646012380F85030FDF72EFC5E
:103D3000804694F85130DBB26268012B15D0B2F5A1
:103D4000827F0AD00223012284F85120002284F8C5
:103D50005020184605B0BDE8F083A268002A40F064
:103D6000E780042B01D00223EDE7002F00F0E28072
:103D7000002E00F0E180B9F1000F00F0DF8094F830
:103D80005130DBB2012B2BD000236365A663A4F86E
:103D90003E90A4F83C902763A4F83690A4F83490A1
:103DA0002364636423681A6812F0400F03D11A6811
:103DB00042F040021A60E368B3F5006F14D0636804
:103DC0001BB1E38E9BB2012B07D1236817F8012B9F
:103DD0001A73E38E013B9BB2E3864FF0010961E069
:103DE000052384F85130CFE763681BB1E38E9BB2A3
:103DF000012B07D1236837F8022BDA60E38E013BF1
:103E00009BB2E3864FF0010913E0E38F9BB26BB1E5
:103E100023689A6812F0010F08D0DB6826F8023B8D
:103E2000E38F013B9BB2E3874FF00109B5F1FF3F00
:103E30001CD1E38E9BB21BB9E38F9BB2002B55D0F4
:103E4000B9F1000FE1D0E38E9BB2002BDDD02368E7
:103E50009A6812F0020FD8D037F8022BDA60E38E9E
:103E6000013B9BB2E3864FF00009CEE7FDF78EFBE6
:103E7000A0EB0800A842DCD3032364E7E38F9BB2E6
:103E80006BB123689A6812F0010F08D0DB683370B9
:103E9000E38F013B9BB2E38701364FF00109B5F197
:103EA000FF3F1BD1E38E9BB213B9E38F9BB2EBB103
:103EB000B9F1000FE2D0E38E9BB2002BDED0236875
:103EC0009A6812F0020FD9D03A781A73E38E013B48
:103ED0009BB2E38601374FF00009CFE7FDF756FBB1
:103EE000A0EB0800A842DDD303232CE7CDF8008027
:103EF0002B46012202212046FFF7D6FD08B10323FD
:103F000021E7424629462046FFF719FE034618B12D
:103F100020236365012316E7A268002A7FF413AF0C
:103F200003922268D168039192680392039A0AE788
:103F3000022308E7012306E7012304E7012302E740
:103F4000022306E72DE9F04182B004460D461746EC
:103F50001E464368B3F5827F19D094F85030012B88
:103F600000F0A280012384F85030FDF70FFB80465B
:103F700094F85130DBB2012B15D00220012384F8D4
:103F80005130002384F8503002B0BDE8F0818368DE
:103F9000002BE2D1042380F85130009613460A46E4
:103FA000FFF7B4FEF0E7002D74D0002F74D0042387
:103FB00084F8513000236365A563A787E7872363EF
:103FC000A386E38623646364A368B3F5004F0BD034
:103FD00023681A6812F0400F03D11A6842F04002B9
:103FE0001A60E3685BB128E02268136823F4804319
:103FF0001360EDE7002E51D0B6F1FF3F10D1E38FF3
:104000009BB2002B31D023689A6812F0010FF1D0D7
:104010001B7B05F8013BE38F013B9BB2E387EEE797
:10402000FDF7B4FAA0EB0800B042E8D30320A5E7FF
:10403000002E35D0B6F1FF3F0FD1E38F9BB2A3B175
:1040400023689A6812F0010FF2D0DB6825F8023B72
:10405000E38F013B9BB2E387EFE7FDF797FAA0EB15
:104060000800B042E9D3032088E76368B3F5827F94
:1040700003D0636DB3B9002080E7A368B3F5004FA8
:1040800002D0B3F5806FF4D12268136823F04003A7
:104090001360EEE7012071E701206FE703206DE771
:1040A00003206BE7012069E702206DE770470000FD
:1040B00010B584B0044602685068936803F041016B
:1040C00001290AD013F0020F0ED010F0800F0BD090
:1040D000636C2046984704B010BD10F0400FF1D03B
:1040E000236C20469847F6E713F0600FF3D010F0EA
:1040F000200FF0D013F0400F0FD094F85110C9B238
:1041000003293DD0616D41F00401616500210191F9
:10411000D168019191680191019913F0200F0CD0A1
:10412000636D43F001036365002303939368039376
:10413000136823F040031360039B636D002BCAD008
:104140002268536823F0E0035360012384F8513060
:1041500010F0030F1CD02268536823F00303536050
:10416000E36C23B10C4A5A63E06CFDF741FBA36C8E
:10417000002BB0D0084A5A63A06CFDF739FBAAE7C0
:1041800000230293D368029393680293029BA2E7F1
:104190002046FFF78BFF9EE79D41000808B5406A67
:1041A0000023C387C386FFF781FF08BD90F8510045
:1041B0007047406D704700283CD010B5044600237E
:1041C000836290F85130002B31D0022384F85130B3
:1041D0002268136823F0400313606368A2681343E6
:1041E000E26813432269134362691343A26902F42C
:1041F00000721343E2691343226A1343A16A2268DF
:104200000B431360638B03F00403616A22680B4362
:1042100053602368E26A1A612268D36923F4006359
:10422000D36100206065012384F8513010BD04F093
:1042300009FFCAE70120704770B4036A23F0010345
:104240000362036A4268846924F073040D6845EAD6
:10425000040623F002048B6823430D4DA84209D0C5
:104260000B4DA8420DD0426086614A6842630362EA
:1042700070BC704723F00803CC68234323F0040389
:10428000EEE722F440724C6914438A692243EAE75C
:10429000002C014030B4036A23F480730362036A84
:1042A0004268C46924F073040D682C4323F400733E
:1042B0008D6843EA05230F4DA84209D00D4DA84251
:1042C0000ED04260C4614A68C263036230BC70476A
:1042D00023F40063CD6843EA052323F48063EDE70C
:1042E00022F440524D6942EA05128D6942EA0512F4
:1042F000E7E700BF002C014030B4036A23F4805389
:104300000362036A4468C26922F4E6420D6842EA25
:10431000052223F400538D6843EA0533074DA84274
:1043200006D04460C2614A680264036230BC7047D0
:1043300024F480444D6944EA8514F2E7002C0140DE
:1043400010B4036A046A24F001040462846924F04E
:10435000F00444EA021223F00A030B438261036271
:1043600010BC704710B4036A23F010030362846921
:10437000036A24F4704444EA023223F0A00343EABF
:1043800001138261036210BC7047836823F07003DD
:1043900041F0070119438160704710B4846824F428
:1043A0007F4442EA03230B432343836010BC7047DE
:1043B0000268D36843F00103D3600268136843F0D6
:1043C0000103136000207047704790F83C30012BC8
:1043D0007DD010B50446012380F83C30022380F8DC
:1043E0003D300268936823F47F4323F077039360A2
:1043F0000B68402B57D010D9702B3ED01FD8502BB4
:1044000047D0602B32D1CA6849680068FFF7AAFF1D
:1044100060212068FFF7B9FF28E0102B4DD008D9A4
:10442000202B4FD0302B21D130210068FFF7ADFF7A
:104430001CE0DBB900210068FFF7A7FF16E0B3F529
:10444000805F0ED0B3F5005F10D1CB684A688968F1
:104450000068FFF7A2FF2268936843F480439360EB
:1044600004E00268936823F007039360012384F853
:104470003D30002084F83C0010BDCB684A68896854
:104480000068FFF78AFF2268936843F07703936020
:10449000ECE7CA6849680068FFF752FF50212068BE
:1044A000FFF773FFE2E7CA6849680068FFF748FF53
:1044B00040212068FFF769FFD8E710210068FFF767
:1044C00064FFD3E720210068FFF75FFFCEE70220FB
:1044D00070477047704770477047704710B5044683
:1044E00003681A6912F0020F11D0DA6812F0020F95
:1044F0000DD06FF002021A610123037703689B69F4
:1045000013F0030F70D0FFF7E6FF00232377236833
:104510001A6912F0040F12D0DA6812F0040F0ED0EC
:104520006FF004021A610223237723689B6913F456
:10453000407F5FD02046FFF7CEFF0023237723681C
:104540001A6912F0080F12D0DA6812F0080F0ED0B4
:104550006FF008021A61042323772368DB6913F0E4
:10456000030F4ED02046FFF7B6FF002323772368C2
:104570001A6912F0100F12D0DA6812F0100F0ED074
:104580006FF010021A61082323772368DB6913F4A4
:10459000407F3DD02046FFF79EFF0023237723680E
:1045A0001A6912F0010F03D0DA6812F0010F36D148
:1045B00023681A6912F0800F03D0DA6812F0800FB6
:1045C00034D123681A6912F0400F03D0DA6812F070
:1045D000400F32D123681A6912F0200F03D0DA6835
:1045E00012F0200F30D110BDFFF774FF2046FFF707
:1045F00073FF8AE72046FFF76DFF2046FFF76CFF49
:104600009BE72046FFF766FF2046FFF765FFACE714
:104610002046FFF75FFF2046FFF75EFFBDE76FF024
:1046200001021A612046FFF754FFC1E76FF08002D4
:104630001A61204600F098F9C3E76FF040021A6152
:104640002046FFF74AFFC5E76FF020021A612046B7
:1046500000F089F9C7E7000003681B4A90420AD0BE
:10466000B0F1804F07D0A2F59432904203D002F50A
:104670008062904203D123F070034A681343124AC8
:1046800090420AD0B0F1804F07D0A2F59432904208
:1046900003D002F58062904203D123F44073CA68CC
:1046A000134323F080034A69134303608B68C3629A
:1046B0000B688362044B984202D001234361704728
:1046C0000B690363F9E700BF002C0140A8B110B5E6
:1046D000044690F83D305BB1022384F83D30211D43
:1046E0002068FFF7B9FF012384F83D30002010BD9A
:1046F00080F83C3004F052FEEEE701207047A8B18C
:1047000010B5044690F83D305BB1022384F83D308B
:10471000211D2068FFF7A0FF012384F83D30002011
:1047200010BD80F83C30FFF74FFEEEE701207047E8
:1047300030B4036A23F010030362036A4468826999
:1047400022F4E6420D6842EA052223F020038D6838
:1047500043EA05130E4DA84209D00D4DA8420ED0D4
:10476000446082614A688263036230BC704723F010
:104770008003CD6843EA051323F04003EDE724F4FA
:1047800040644D6944EA85048D6944EA8504E7E79D
:10479000002C014038B590F83C30012B66D00D4616
:1047A0000446012380F83C30022380F83D300C2A77
:1047B0001AD8DFE802F00719191920191919341944
:1047C000191947000068FFF737FD2268936943F025
:1047D000080393612268936923F0040393612268BC
:1047E000936929690B439361012384F83D300020CC
:1047F00084F83C0038BD0068FFF79AFF226893698F
:1048000043F4006393612268936923F480639361A6
:1048100022689369296943EA01239361E4E7006808
:10482000FFF738FD2268D36943F00803D36122689B
:10483000D36923F00403D3612268D36929690B4348
:10484000D361D1E70068FFF757FD2268D36943F4CD
:104850000063D3612268D36923F48063D361226843
:10486000D369296943EA0123D361BDE70220C1E787
:1048700010B4012303FA01F4036A23EA0403036278
:10488000036A8A401343036210BC704710B50446A4
:1048900001220068FFF7ECFF2368074A934206D025
:1048A0002268136843F001031360002010BD5A6CA6
:1048B00042F400425A64F3E7002C014090F83C3087
:1048C000012B25D0012380F83C30CB6823F44073C2
:1048D0008A68134323F480634A68134323F4006314
:1048E0000A68134323F480530A69134323F40053E3
:1048F0004A69134323F480438A69134323F4004332
:10490000134302685364002380F83C301846704714
:104910000220704790F83C30012B22D030B40122A5
:1049200080F83C20022380F83D300468636823F05F
:1049300070036360046863680D682B4363600468F8
:10494000A36823F08003A3600468A36849680B434D
:10495000A36080F83D20002380F83C30184630BC2E
:10496000704702207047704770470268D36823F091
:10497000C003D360202380F8393070470268D368C1
:1049800023F49073D3600268536923F001035361E9
:10499000202380F83A30704790F83930DBB2212B71
:1049A0002AD18368B3F5805F16D0036A5A1C02626D
:1049B0001A7803685A60C38C013B9BB2C384EBB97D
:1049C0000268D36823F08003D3600268D36843F0A1
:1049D0004003D36000207047036A1B880268C3F35A
:1049E0000803536003691BB9036A02330362E2E7F9
:1049F000036A01330362DEE702207047002070473C
:104A00002DE9F84305460268136923F44053C16851
:104A10000B431361836802691343426913430168BE
:104A2000CA6822F4B05222F00C021343CB60026831
:104A3000536923F4407381690B4353610268594BF6
:104A40009A4257D0FFF710F800EB800000EB80008F
:104A50006C68A400B0FBF4F4534FA7FB0434640962
:104A60002601FFF701F800EB800000EB80006C6886
:104A7000A400B0FBF4F9FEF7F7FF00EB800000EBB9
:104A800080006C68A400B0FBF4F4A7FB0434640954
:104A90004FF0640808FB149424013234A7FB04345B
:104AA000640904F0F0043444FEF7DEFF00EB8000FC
:104AB00000EB80006E68B600B0FBF6F6FEF7D4FFA0
:104AC00000EB800000EB80006B689B00B0FBF3F014
:104AD000A7FB0030400908FB10684FEA081808F1EE
:104AE0003208A7FB0837C7F343172B6827449F609A
:104AF000BDE8F883FEF7C8FF00EB800000EB800004
:104B00006C68A400B0FBF4F4274FA7FB04346409DD
:104B10002601FEF7B9FF00EB800000EB80006C6817
:104B2000A400B0FBF4F9FEF7AFFF00EB800000EB50
:104B300080006C68A400B0FBF4F4A7FB04346409A3
:104B40004FF0640808FB149424013234A7FB0434AA
:104B5000640904F0F0043444FEF796FF00EB800093
:104B600000EB80006E68B600B0FBF6F6FEF78CFF37
:104B700000EB800000EB80006B689B00B0FBF3F063
:104B8000A7FB0030400908FB10684FEA081808F13D
:104B90003208A7FB0837C7F343172B6827449F60E9
:104BA000A6E700BF003801401F85EB512DE9F04119
:104BB00005460F4616469846069C2B681B6837EA42
:104BC00003030CBF01230023B3421DD1B4F1FF3F07
:104BD000F3D02CB1FCF7DAFCA0EB0800A042ECD932
:104BE0002A68D36823F4D073D3602A68536923F00A
:104BF00001035361202385F8393085F83A300023CA
:104C000085F83830032000E00020BDE8F08158B37B
:104C100010B5044690F839300BB3242384F83930AA
:104C20002268D36823F40053D3602046FFF7E8FEE0
:104C30002268136923F4904313612268536923F0B7
:104C40002A0353612268D36843F40053D3600020E1
:104C5000E063202384F8393084F83A3010BD80F8BE
:104C6000383004F06FFDD8E7012070472DE9F0419E
:104C700082B01E4690F83930DBB2202B55D1044665
:104C80000D469046002955D0002A55D090F838306E
:104C9000012B53D0012380F838300023C363212334
:104CA00080F83930FCF772FC0746A4F82480A4F899
:104CB000268010E000963B46002280212046FFF728
:104CC00075FF00283CD12B882268C3F3080353608A
:104CD0002369C3B90235E38C9BB2B3B1E38C013BCA
:104CE0009BB2E384A368B3F5805FE3D000963B46B4
:104CF000002280212046FFF759FF18BB2A7823683D
:104D00005A600135E7E70135E5E700963B460022AA
:104D100040212046FFF74AFF0346A8B9202284F825
:104D20003920002284F8382000E00223184602B01F
:104D3000BDE8F0810123F9E70123F7E70223F5E756
:104D40000323F3E70323F1E70323EFE730B583B051
:104D500090F83A40E4B2202C3DD100293ED0002A00
:104D60003ED090F83830012B3CD013460A4604461A
:104D7000012180F83810826283850025C5632221D5
:104D800080F83A10416B18488862616B1748C86216
:104D9000616B17480863616B4D6321680431606B78
:104DA000FCF7ECFC019523681A6801925A6801929D
:104DB000019A84F83850DA6842F48072DA60226826
:104DC000536943F0010353612268536943F0400380
:104DD0005361284600E0022003B030BD0120FBE70C
:104DE0000120F9E70220F7E7114E0008EB4E00081A
:104DF000F74E0008704708B50168CB6823F0400300
:104E0000CB60202380F83930FFF7F4FF002008BD85
:104E100008B5436A0268126812F0200F13D100220D
:104E2000DA851968CA6822F48072CA6019684A690A
:104E300022F001024A6119684A6922F040024A617F
:104E4000202283F83A20184601F0C0F808BD08B5C2
:104E500090F83A30DBB2222B45D18368B3F5805FFE
:104E60000ED0036903BB03685A68836A591C8162C8
:104E70001A70C38D013B9BB2C385F3B1002033E0B0
:104E8000826A036943B903685B68C3F3080313804C
:104E9000836A02338362ECE703685B68DBB21380EA
:104EA000836A01338362E4E703685B68826A511CAA
:104EB000816203F07F031370DBE70268D36823F09D
:104EC0002003D3600268D36823F48073D360026840
:104ED000536923F001035361202380F83A3001F035
:104EE00075F8002000E0022008BD08B5406A01F016
:104EF00057F808BD704710B5446A23685A6994F89A
:104F00003930DBB2212B10D023685A6902F04002FD
:104F100094F83A30DBB2222B11D0E36B43F010034C
:104F2000E3632046FFF7E6FF10BD02F08002002A8F
:104F3000EAD00023E3842046FFF717FDE4E7002AC8
:104F4000EBD00023E3852046FFF718FDE5E70000DE
:104F500010B5044602681368D168526913F00F0057
:104F600005D113F0200F02D011F0200F53D10028EB
:104F700067D012F0010202D111F4907F61D013F0DA
:104F8000010F06D011F4807F03D0E06B40F00100E8
:104F9000E06313F0040F04D01AB1E06B40F002009C
:104FA000E06313F0020F04D01AB1E06B40F004008C
:104FB000E06313F0080F04D01AB1E26B42F008026C
:104FC000E263E26B002A48D013F0200F02D011F008
:104FD000200F24D123685B6903F04003E26B12F0D9
:104FE000080F00D13BB32046FFF7C8FC23685A697D
:104FF00012F0400F1BD05A6922F040025A61636BD5
:105000008BB11A4A5A63606BFCF7F2FB28B3606BF2
:10501000436B984721E02046FFF719FF1DE020462B
:10502000FFF715FFD6E72046FFF764FF15E020469F
:10503000FFF760FF11E02046FFF75CFF0023E3630A
:105040000BE013F0800F02D011F0800F06D113F0A7
:10505000400F02D011F0400F04D110BD2046FFF7E1
:105060009BFCFAE72046FFF7C6FEF6E77150000802
:1050700008B5406A0023C385C384FFF73BFF08BD22
:1050800070B584B005460E4632210291019300921C
:105090000123324600FA03F10748FDF77BFA044684
:1050A00010B960B204B070BD33462A4601460348C9
:1050B00005F014FDF5E700BFB804002030E2000859
:1050C00070B584B005460E463221029101930092DC
:1050D0000123324600FA03F10748FDF79DF9044623
:1050E00010B960B204B070BD33462A460146034889
:1050F00005F0F4FCF5E700BFB804002078E20008F2
:1051000038B504464FF07E53036641700123837027
:105110001E4B43601E4B83601E4BC36000F018FAA9
:1051200008BB04F134052146284600F04AFA01463E
:10513000F0B9042384F83730052384F8353003238D
:1051400084F83430002384F836302146284600F0B5
:105150006DFA014680B92146032000F06EFA04463C
:1051600070B9204638BD01460B4805F0B7FCD8E7BA
:105170000A4805F0B3FCDCE7094805F0AFFCEAE7B4
:105180000146084805F0AAFCEBE700BF8150000883
:10519000C1500008991500084CE1000874E10008AE
:1051A000A0E10008CCE100082DE9F8430446884658
:1051B000054600F08DFD81460026374620E0014679
:1051C000194805F08BFC2946E06B00F07BFA60641F
:1051D0002946206C00F099FAA0642946206C00F062
:1051E000F4FAE0642946E06B00F0EAFBC4E914013C
:1051F0002946206C00F05CFCC4E916010136F6B2C9
:10520000B3B243450CD25FB9E36848469847294694
:1052100004F13C0000F023FA07460028D3D0CEE783
:105220003846BDE8F88300BFFCE1000850B1426891
:105230005AB1826862B1C3680BB1002070474FF069
:10524000FF3070474FF0FF3070474FF0FF3070472E
:105250004FF0FF30704770B4012408E06500013D55
:10526000065D4E55155D01F814500134E4B29C42C0
:10527000F4D370BC70472DE9F04106460D469046C8
:105280001C461846FFF7D2FF78B98DB1A3780BB949
:1052900046F08006676843462A4631466078B8473C
:1052A000034640B91846BDE8F0814FF0FF33F9E7F7
:1052B0004FF0FF33F6E76FF00303F3E710B586B066
:1052C00004460023009301930293039304930593F0
:1052D000FFF7ACFF034610B1184606B010BD2346D9
:1052E000182269468820FFF7C6FF03460028F3D13D
:1052F0009DF801109DF8002042EA012222829DF8CB
:1053000003109DF8022042EA012262829DF80510F6
:105310009DF8042042EA0122A2829DF807109DF820
:10532000062042EA0122E2829DF809109DF8082039
:1053300042EA012222839DF80B109DF80A2042EADE
:10534000012262839DF80D109DF80C2042EA012293
:10535000A2839DF80F109DF80E2042EA0122E283FD
:105360009DF811109DF8102042EA012222849DF838
:1053700013109DF8122042EA012262849DF8151054
:105380009DF8142042EA0122A2849DF817109DF88E
:10539000162042EA0122E2849EE7F0B583B005467A
:1053A0000F4614461E46042A00D904243046FFF74F
:1053B0003DFF48BB5DB36FB37CB33B788DF80030E5
:1053C000B378ABB1012C15D8A3B2B4686A4629787A
:1053D0007078A047034618BB184603B0F0BDAB5C1D
:1053E00003F07F03AB540132D2B29442F7D8E9E71D
:1053F0000022FAE723463A4669462846FFF72BFF84
:105400006400013CA3B2E0E74FF0FF33E4E74FF064
:10541000FF33E1E74FF0FF33DEE76FF00203DBE736
:105420006FF00303D8E730B583B00546E0238DF86D
:105430000730B6238DF80630FFF7F8FE044610B1AA
:10544000204603B030BD2B4601220DF106010DF1BF
:105450000700FFF7A2FF0446EB6802209847EFE73A
:1054600070B582B006460D46144600238DF8043010
:105470008DF80530354B1B88ADF800301046FFF72E
:10548000D5FE00285CD1002D5DD02346022201A963
:10549000F420FFF7F0FE034610B1184602B070BDCD
:1054A0002046FFF7C0FF03460028F6D19DF90430DF
:1054B00003F01F032A7843EA42135BB223F01C0374
:1054C0006A78920002F01C0213438DF804309DF9B3
:1054D000053003F01F03AA7843EA42135BB223F0BE
:1054E0001C03EA78920002F01C02134323F001032C
:1054F00095F9042002F0010213438DF8053023468C
:10550000022201A96846FFF748FF03460028C4D1DC
:105510002868E0622A7984F83020002EBDD09DF9F9
:10552000043023F0030306F003061E4302A901F82A
:10553000046D234601226846FFF72FFF0346ACE7C0
:105540004FF0FF33A9E74FF0FF33A6E7FCE0000878
:1055500070B50546FFF76AFE064668BB052409E0FC
:105560002846FFF7ABFE064619E0EB680A2098478D
:10557000013CE4B29CB12B4601222946D020FFF722
:105580007AFE06460028F0D12B78563BDBB2022B80
:10559000EBD82846FFF747FF06460028E0D06CB15D
:1055A00056B9002385F82F3085F82D3085F82C303A
:1055B00085F82E3085F83030304670BD6FF001062A
:1055C000FAE730B583B004460D4600238DF8043069
:1055D0008DF805300846FFF729FE08BB1CB32B46A3
:1055E000022201A9F420FFF746FE0246A8B99DF861
:1055F000043059092170C3F3820363709DF80530AC
:105600005909A170C3F38201E17003F00103237112
:105610002068E862237985F83030104603B030BD49
:105620004FF0FF32F9E74FF0FF32F6E708B50A46D0
:1056300001460020FFF714FF08BD38B505460C46AB
:105640000846FFF7F3FD034608B1184638BD224669
:1056500004F12C012846FFF703FF0346F5E730B5B8
:1056600083B004460D4600230093ADF8043008468D
:10567000FFF7DCFD00BB14B32B4606226946F7207A
:10568000FFF7F9FD9DF800209DF801301B0143EA6A
:1056900002339DF8022043EA121363609DF8032051
:1056A0009DF804301B0143EA02339DF8052043EACC
:1056B0001213236003B030BD4FF0FF30FAE74FF014
:1056C000FF30F7E738B505460C460846FFF7AEFD54
:1056D000C8B9208A4200C2EBD503B4F9122002FBFC
:1056E00003F2C0EB151000FB00F0030BB4F914003B
:1056F00000FB03F0800B00EBD220A06200EB8000E7
:105700008030001238BD0020FCE770B505460C461D
:105710000846FFF78BFD002853D1A36A5B10A3F561
:105720007A439A1002FB02F2D012B4F92060B4F965
:105730001E1003FB01F1490006FB0011B4F91C0027
:10574000000400EBA100B4F91A10521302FB01F29D
:10575000B4F9181003FB01F35B1003EBE2039B1495
:1057600003F50043E28A02FB03F300134042451BAA
:1057700040F6354000FB05F000F1434000F5A00085
:10578000DB1320D0002818DB4000B0FBF3F0B4F9A5
:105790002610C20802FB02F2530B03FB01F2810840
:1057A000B4F9243003FB01F35B1303EB2233B4F9A8
:1057B0002220134400EB231004E0B0FBF3F0400080
:1057C000E5E7002070BD0020FCE72DE9F04F85B033
:1057D00003900C460846FFF729FD002840F0E880BA
:1057E000A26AD317B2F5FA3843F1FF3908FB09F181
:1057F000A8FB086707EB4107B4F920A04FEAEA7B52
:1058000006FB0BF10AFB0711A6FB0A230B44B4F9B4
:105810001E00C11700FB09FC08FB01CCCDE9008983
:10582000C646A0FB080161444FEA414949EAD03924
:105830004FEA404812EB080A43EB090BB4F91C008D
:105840000022C30012EB0A0843EB0B09B4F91A203B
:10585000D31706FB03F102FB0711A6FB02670F44F7
:105860004FEA162A4AEA076A4FEA272BB4F91810BA
:10587000CA17DDE90056334601FB03F305FB023787
:10588000A1FB05233B441F0347EA125716031AEBFB
:1058900006004BEB070110F1000A41F5004BE28ACC
:1058A000AAFB026702FB0B777B100093FB170193A7
:1058B000DDE9002313437FD0039BC3F580154FEA36
:1058C000550B4FEAC57ABAEB080A6BEB090B1AEBDA
:1058D0000A064BEB0B071AEB06084BEB07094FEADE
:1058E000891343EA98634FEA881218EB020049EBE8
:1058F00003018B0043EA907382001AEB02064BEB24
:105900000307BB0043EA9673B20016461F46DDE963
:1059100000231AEB060A4BEB070B50465946FBF7E0
:10592000EFFBB4F92660F717420B42EAC1424B1372
:1059300006FB03F502FB0755A6FB02672F4402FB9B
:1059400007F503FB0655A2FB06232B444FEA526AD8
:105950004AEAC31A4FEA636BB4F924804FEAE87944
:1059600008FB01F300FB0933A8FB008999444FEAC7
:10597000D84242EA49324FEAE9431AEB00064BEBC0
:10598000010716EB020847EB03094FEA182040EA2B
:1059900009604FEA2921B4F92240E5172B0143EAB7
:1059A00014732201841841EB0305CDE9004503E09F
:1059B00000230024CDE90034009805B0BDE8F08F45
:1059C0002DE9F84F05460C460846FFF72FFC002846
:1059D0005ED12846FAF7FEFC8046894600222E4B0F
:1059E000FAF772FD06460F46208AFAF7F3FC824664
:1059F0008B460022294BFAF767FD02460B463046DC
:105A00003946FAF7A9FB06460F46B4F91200FAF731
:105A1000F1FC02460B4630463946FAF755FD06467C
:105A20000F4600221E4B40464946FAF74DFD804680
:105A3000894600221B4B50465946FAF745FD02465F
:105A40000B4640464946FAF787FB02460B46FAF7F3
:105A50003BFD80468946B4F91400FAF7CBFC0246B8
:105A60000B4640464946FAF72FFD02460B463046A4
:105A70003946FAF773FB06460F46FAF7BFFFA062F6
:105A80000022094B30463946FAF748FEBDE8F88F48
:105A900000200021FAE700BF0000103F0000503F47
:105AA0000000E03E0000203F0000B4400000000085
:105AB0002DE9F84F05460C460846FFF7B7FB0028CE
:105AC00040F0EB80A06AFAF795FC0022784BFAF7D9
:105AD000FBFC0022774BFAF73FFB06460F460246D7
